{
  "contractName": "FlightSuretyData",
  "abi": [
    {
      "inputs": [],
      "payable": false,
      "stateMutability": "nonpayable",
      "type": "constructor"
    },
    {
      "anonymous": false,
      "inputs": [
        {
          "indexed": false,
          "internalType": "address",
          "name": "caller",
          "type": "address"
        }
      ],
      "name": "AuthorizedCaller",
      "type": "event"
    },
    {
      "anonymous": false,
      "inputs": [
        {
          "indexed": false,
          "internalType": "address",
          "name": "passenger",
          "type": "address"
        },
        {
          "indexed": false,
          "internalType": "string",
          "name": "flight",
          "type": "string"
        },
        {
          "indexed": false,
          "internalType": "uint256",
          "name": "amount",
          "type": "uint256"
        }
      ],
      "name": "CreditInsured",
      "type": "event"
    },
    {
      "anonymous": false,
      "inputs": [
        {
          "indexed": false,
          "internalType": "address",
          "name": "caller",
          "type": "address"
        }
      ],
      "name": "DeAuthorizedCaller",
      "type": "event"
    },
    {
      "anonymous": false,
      "inputs": [
        {
          "indexed": true,
          "internalType": "address",
          "name": "account",
          "type": "address"
        }
      ],
      "name": "RegisterAirline",
      "type": "event"
    },
    {
      "anonymous": false,
      "inputs": [
        {
          "indexed": true,
          "internalType": "string",
          "name": "account",
          "type": "string"
        }
      ],
      "name": "RegisterFlight",
      "type": "event"
    },
    {
      "payable": true,
      "stateMutability": "payable",
      "type": "fallback"
    },
    {
      "constant": true,
      "inputs": [],
      "name": "isOperational",
      "outputs": [
        {
          "internalType": "bool",
          "name": "",
          "type": "bool"
        }
      ],
      "payable": false,
      "stateMutability": "view",
      "type": "function"
    },
    {
      "constant": false,
      "inputs": [
        {
          "internalType": "bool",
          "name": "mode",
          "type": "bool"
        }
      ],
      "name": "setOperatingStatus",
      "outputs": [],
      "payable": false,
      "stateMutability": "nonpayable",
      "type": "function"
    },
    {
      "constant": true,
      "inputs": [],
      "name": "registerAirline",
      "outputs": [],
      "payable": false,
      "stateMutability": "pure",
      "type": "function"
    },
    {
      "constant": false,
      "inputs": [],
      "name": "buy",
      "outputs": [],
      "payable": true,
      "stateMutability": "payable",
      "type": "function"
    },
    {
      "constant": true,
      "inputs": [],
      "name": "creditInsurees",
      "outputs": [],
      "payable": false,
      "stateMutability": "pure",
      "type": "function"
    },
    {
      "constant": true,
      "inputs": [],
      "name": "pay",
      "outputs": [],
      "payable": false,
      "stateMutability": "pure",
      "type": "function"
    },
    {
      "constant": false,
      "inputs": [],
      "name": "fund",
      "outputs": [],
      "payable": true,
      "stateMutability": "payable",
      "type": "function"
    }
  ],
  "bytecode": "0x60806040526001600060146101000a81548160ff02191690831515021790555034801561002b57600080fd5b50336000806101000a81548173ffffffffffffffffffffffffffffffffffffffff021916908373ffffffffffffffffffffffffffffffffffffffff1602179055506102738061007b6000396000f3fe6080604052600436106100705760003560e01c806363e29a3f1161004e57806363e29a3f146100e5578063a6f2ae3a146100fc578063b60d428814610106578063cd905dff1461011057610070565b8063110466ed1461007a5780631b9265b8146100b757806336cee484146100ce575b61007861013f565b005b34801561008657600080fd5b506100b56004803603602081101561009d57600080fd5b81019080803515159060200190929190505050610141565b005b3480156100c357600080fd5b506100cc610220565b005b3480156100da57600080fd5b506100e3610222565b005b3480156100f157600080fd5b506100fa610224565b005b610104610226565b005b61010e61013f565b005b34801561011c57600080fd5b50610125610228565b604051808215151515815260200191505060405180910390f35b565b6000809054906101000a900473ffffffffffffffffffffffffffffffffffffffff1673ffffffffffffffffffffffffffffffffffffffff163373ffffffffffffffffffffffffffffffffffffffff1614610203576040517f08c379a000000000000000000000000000000000000000000000000000000000815260040180806020018281038252601c8152602001807f43616c6c6572206973206e6f7420636f6e7472616374206f776e65720000000081525060200191505060405180910390fd5b80600060146101000a81548160ff02191690831515021790555050565b565b565b565b565b60008060149054906101000a900460ff1690509056fea265627a7a72315820e83027ef4408196183875a01d5714c2664d29c89f5e251959b6efd6e0f5e59e764736f6c63430005100032",
  "source": "// SPDX-License-Identifier: MIT\npragma solidity >=0.4.22 <0.9.0;\n\nimport \"../node_modules/openzeppelin-solidity/contracts/math/SafeMath.sol\";\n\ncontract FlightSuretyData {\n    using SafeMath for uint256;\n\n    /********************************************************************************************/\n    /*                                       DATA VARIABLES                                     */\n    /********************************************************************************************/\n\n    // Account used to deploy contract\n    address private contractOwner;\n\n    // Blocks all state changes throughout the contract if false\n    bool private operational = true;\n\n    // mapping(address => bool) private authorizedCallers;\n\n    struct Airline\n    {\n        bool isRegistered;\n        address ethAccount;\n        uint256 owner;\n    }\n\n    struct Flight\n    {\n        string flightName;\n        address airline;\n        uint8 statusCode;\n        uint256 timestamp;\n    }\n\n    struct Insurance\n    {\n        address passenger;\n        uint256 insuranceAmount;\n    }\n\n\n    mapping(address => uint8) authorizedCaller;\n    mapping(address => Airline) airlines;\n    mapping(string => Flight) flights;\n    mapping(string => address[]) flightInsurees;\n    mapping(address => uint256) funds;\n    mapping(bytes32 => uint256) flightSurety;\n\n    /********************************************************************************************/\n    /*                                       EVENT DEFINITIONS                                  */\n    /********************************************************************************************/\n\n    event AuthorizedCaller(address caller);\n    event DeAuthorizedCaller(address caller);\n    event CreditInsured(address passenger, string flight, uint256 amount);\n    event RegisterAirline(address indexed account);\n    event RegisterFlight(string indexed account);\n\n    /**\n    * @dev Constructor\n    *      The deploying account becomes contractOwner\n    */\n    constructor() \n    public \n    {\n        contractOwner = msg.sender;\n        // airlines[contractOwner] = Airline(contractOwner, AirlineState.Paid, \"The first airline\", 0);\n        // totalPaidAirlines++;\n    }\n\n    /********************************************************************************************/\n    /*                                       FUNCTION MODIFIERS                                 */\n    /********************************************************************************************/\n\n    // Modifiers help avoid duplication of code. They are typically used to validate something\n    // before a function is allowed to be executed.\n\n    /**\n    * @dev Modifier that requires the \"operational\" boolean variable to be \"true\"\n    *      This is used on all state changing functions to pause the contract in \n    *      the event there is an issue that needs to be fixed\n    */\n    modifier requireIsOperational() \n    {\n        require(operational, \"Contract is currently not operational\");\n        _;  // All modifiers require an \"_\" which indicates where the function body will be added\n    }\n\n    /**\n    * @dev Modifier that requires the \"ContractOwner\" account to be the function caller\n    */\n    modifier requireContractOwner()\n    {\n        require(msg.sender == contractOwner, \"Caller is not contract owner\");\n        _;\n    }\n\n    /********************************************************************************************/\n    /*                                       UTILITY FUNCTIONS                                  */\n    /********************************************************************************************/\n\n    /**\n    * @dev Get operating status of contract\n    *\n    * @return A bool that is the current operating status\n    */      \n    function isOperational() \n    public \n    view \n    returns(bool) \n    {\n        return operational;\n    }\n\n\n    /**\n    * @dev Sets contract operations on/off\n    *\n    * When operational mode is disabled, all write transactions except for this one will fail\n    */    \n    function setOperatingStatus(\n        bool mode\n    ) \n    external\n    requireContractOwner \n    {\n        operational = mode;\n    }\n\n    /********************************************************************************************/\n    /*                                     SMART CONTRACT FUNCTIONS                             */\n    /********************************************************************************************/\n\n   /**\n    * @dev Add an airline to the registration queue\n    *      Can only be called from FlightSuretyApp contract\n    *\n    */   \n    function registerAirline()\n    external\n    pure\n    {}\n\n\n   /**\n    * @dev Buy insurance for a flight\n    *\n    */   \n    function buy()\n    external\n    payable\n    {}\n\n\n    /**\n     *  @dev Credits payouts to insurees\n    */\n    function creditInsurees()\n    external\n    pure\n    {}\n\n\n    /**\n     *  @dev Transfers eligible payout funds to insuree\n     *\n    */\n    function pay()\n    external\n    pure\n    {}\n\n   /**\n    * @dev Initial funding for the insurance. Unless there are too many delayed flights\n    *      resulting in insurance payouts, the contract should be self-sustaining\n    *\n    */   \n    function fund()\n    public\n    payable\n    {}\n\n\n    function getFlightKey(\n        address airline,\n        string memory flight,\n        uint256 timestamp\n    )\n    pure\n    internal\n    returns(bytes32) \n    {\n        return keccak256(abi.encodePacked(airline, flight, timestamp));\n    }\n\n    /**\n    * @dev Fallback function for funding smart contract.\n    *\n    */\n    function()\n    external \n    payable \n    {\n        fund();\n    }\n\n}\n\n",
  "sourcePath": "/Users/nhutnguyen95/Desktop/project_4/contracts/FlightSuretyData.sol",
  "compiler": {
    "name": "solc",
    "version": "0.5.16+commit.9c3226ce.Emscripten.clang"
  },
  "schemaVersion": "3.4.7",
  "updatedAt": "2022-06-28T16:58:39.960Z",
  "networkType": "ethereum",
  "devdoc": {
    "methods": {
      "buy()": {
        "details": "Buy insurance for a flight    "
      },
      "constructor": {
        "details": "Constructor     The deploying account becomes contractOwner"
      },
      "creditInsurees()": {
        "details": "Credits payouts to insurees"
      },
      "fund()": {
        "details": "Initial funding for the insurance. Unless there are too many delayed flights     resulting in insurance payouts, the contract should be self-sustaining    "
      },
      "isOperational()": {
        "details": "Get operating status of contract",
        "return": "A bool that is the current operating status"
      },
      "pay()": {
        "details": "Transfers eligible payout funds to insuree    "
      },
      "registerAirline()": {
        "details": "Add an airline to the registration queue     Can only be called from FlightSuretyApp contract    "
      },
      "setOperatingStatus(bool)": {
        "details": "Sets contract operations on/off    * When operational mode is disabled, all write transactions except for this one will fail"
      }
    }
  },
  "userdoc": {
    "methods": {}
  }
}