{
  "contractName": "FlightSuretyData",
  "abi": [
    {
      "inputs": [],
      "payable": false,
      "stateMutability": "nonpayable",
      "type": "constructor"
    },
    {
      "payable": true,
      "stateMutability": "payable",
      "type": "fallback"
    },
    {
      "constant": true,
      "inputs": [],
      "name": "isOperational",
      "outputs": [
        {
          "name": "",
          "type": "bool"
        }
      ],
      "payable": false,
      "stateMutability": "view",
      "type": "function"
    },
    {
      "constant": false,
      "inputs": [
        {
          "name": "mode",
          "type": "bool"
        },
        {
          "name": "caller",
          "type": "address"
        }
      ],
      "name": "setOperatingStatus",
      "outputs": [],
      "payable": false,
      "stateMutability": "nonpayable",
      "type": "function"
    },
    {
      "constant": false,
      "inputs": [
        {
          "name": "newAirlineAddress",
          "type": "address"
        },
        {
          "name": "registererAddress",
          "type": "address"
        }
      ],
      "name": "registerAirline",
      "outputs": [],
      "payable": false,
      "stateMutability": "nonpayable",
      "type": "function"
    },
    {
      "constant": false,
      "inputs": [
        {
          "name": "airline",
          "type": "address"
        },
        {
          "name": "flightId",
          "type": "string"
        },
        {
          "name": "timestamp",
          "type": "uint256"
        },
        {
          "name": "passenger",
          "type": "address"
        }
      ],
      "name": "buyInsurance",
      "outputs": [],
      "payable": true,
      "stateMutability": "payable",
      "type": "function"
    },
    {
      "constant": false,
      "inputs": [
        {
          "name": "airline",
          "type": "address"
        },
        {
          "name": "flightId",
          "type": "string"
        },
        {
          "name": "timestamp",
          "type": "uint256"
        },
        {
          "name": "passenger",
          "type": "address"
        }
      ],
      "name": "withdrawInsurance",
      "outputs": [],
      "payable": true,
      "stateMutability": "payable",
      "type": "function"
    },
    {
      "constant": false,
      "inputs": [
        {
          "name": "airline",
          "type": "address"
        },
        {
          "name": "flightId",
          "type": "string"
        },
        {
          "name": "timestamp",
          "type": "uint256"
        }
      ],
      "name": "repayPassengerForFlight",
      "outputs": [],
      "payable": true,
      "stateMutability": "payable",
      "type": "function"
    },
    {
      "constant": false,
      "inputs": [
        {
          "name": "callerAddress",
          "type": "address"
        }
      ],
      "name": "authorizeCaller",
      "outputs": [],
      "payable": false,
      "stateMutability": "nonpayable",
      "type": "function"
    },
    {
      "constant": true,
      "inputs": [
        {
          "name": "checkAddress",
          "type": "address"
        }
      ],
      "name": "isAirlineRegistered",
      "outputs": [
        {
          "name": "",
          "type": "bool"
        }
      ],
      "payable": false,
      "stateMutability": "view",
      "type": "function"
    },
    {
      "constant": false,
      "inputs": [
        {
          "name": "airline",
          "type": "address"
        },
        {
          "name": "flightId",
          "type": "string"
        },
        {
          "name": "timestamp",
          "type": "uint256"
        }
      ],
      "name": "registerFlight",
      "outputs": [],
      "payable": false,
      "stateMutability": "nonpayable",
      "type": "function"
    },
    {
      "constant": true,
      "inputs": [
        {
          "name": "airline",
          "type": "address"
        },
        {
          "name": "flightId",
          "type": "string"
        },
        {
          "name": "timestamp",
          "type": "uint256"
        }
      ],
      "name": "isFlightRegistered",
      "outputs": [
        {
          "name": "",
          "type": "bool"
        }
      ],
      "payable": false,
      "stateMutability": "view",
      "type": "function"
    },
    {
      "constant": true,
      "inputs": [
        {
          "name": "airline",
          "type": "address"
        }
      ],
      "name": "getVotesForAirline",
      "outputs": [
        {
          "name": "",
          "type": "uint256"
        }
      ],
      "payable": false,
      "stateMutability": "view",
      "type": "function"
    },
    {
      "constant": false,
      "inputs": [
        {
          "name": "airline",
          "type": "address"
        },
        {
          "name": "airlineVoter",
          "type": "address"
        }
      ],
      "name": "voteForAirline",
      "outputs": [],
      "payable": false,
      "stateMutability": "nonpayable",
      "type": "function"
    },
    {
      "constant": false,
      "inputs": [
        {
          "name": "airline",
          "type": "address"
        }
      ],
      "name": "payFundForAirline",
      "outputs": [],
      "payable": true,
      "stateMutability": "payable",
      "type": "function"
    }
  ],
  "bytecode": "0x60806040526001600060146101000a81548160ff02191690831515021790555034801561002b57600080fd5b50336000806101000a81548173ffffffffffffffffffffffffffffffffffffffff021916908373ffffffffffffffffffffffffffffffffffffffff16021790555061259a8061007b6000396000f3006080604052600436106100c5576000357c0100000000000000000000000000000000000000000000000000000000900463ffffffff168063010c5c97146100c757806314b460b2146101225780631eff699714610158578063241a53cb146101b05780632c388d5d1461022d578063308f1286146102705780633cc0be9c146102c7578063c590dda51461032c578063c7ba50181461037b578063cc0e50d3146103de578063cd905dff14610441578063dab8678314610470578063e2ae39bd146104e8575b005b3480156100d357600080fd5b50610108600480360381019080803573ffffffffffffffffffffffffffffffffffffffff169060200190929190505050610560565b604051808215151515815260200191505060405180910390f35b610156600480360381019080803573ffffffffffffffffffffffffffffffffffffffff1690602001909291905050506105b9565b005b6101ae600480360381019080803573ffffffffffffffffffffffffffffffffffffffff16906020019092919080359060200190820180359060200191909192939192939080359060200190929190505050610804565b005b3480156101bc57600080fd5b50610213600480360381019080803573ffffffffffffffffffffffffffffffffffffffff16906020019092919080359060200190820180359060200191909192939192939080359060200190929190505050610d7c565b604051808215151515815260200191505060405180910390f35b34801561023957600080fd5b5061026e600480360381019080803573ffffffffffffffffffffffffffffffffffffffff169060200190929190505050610df5565b005b34801561027c57600080fd5b506102b1600480360381019080803573ffffffffffffffffffffffffffffffffffffffff169060200190929190505050610df8565b6040518082815260200191505060405180910390f35b3480156102d357600080fd5b5061032a600480360381019080803573ffffffffffffffffffffffffffffffffffffffff16906020019092919080359060200190820180359060200191909192939192939080359060200190929190505050610e41565b005b34801561033857600080fd5b50610379600480360381019080803515159060200190929190803573ffffffffffffffffffffffffffffffffffffffff169060200190929190505050611070565b005b34801561038757600080fd5b506103dc600480360381019080803573ffffffffffffffffffffffffffffffffffffffff169060200190929190803573ffffffffffffffffffffffffffffffffffffffff169060200190929190505050611154565b005b3480156103ea57600080fd5b5061043f600480360381019080803573ffffffffffffffffffffffffffffffffffffffff169060200190929190803573ffffffffffffffffffffffffffffffffffffffff169060200190929190505050611557565b005b34801561044d57600080fd5b506104566117d9565b604051808215151515815260200191505060405180910390f35b6104e6600480360381019080803573ffffffffffffffffffffffffffffffffffffffff16906020019092919080359060200190820180359060200191909192939192939080359060200190929190803573ffffffffffffffffffffffffffffffffffffffff1690602001909291905050506117ef565b005b61055e600480360381019080803573ffffffffffffffffffffffffffffffffffffffff16906020019092919080359060200190820180359060200191909192939192939080359060200190929190803573ffffffffffffffffffffffffffffffffffffffff169060200190929190505050611dce565b005b6000600160008373ffffffffffffffffffffffffffffffffffffffff1673ffffffffffffffffffffffffffffffffffffffff16815260200190815260200160002060000160009054906101000a900460ff169050919050565b600060149054906101000a900460ff161515610663576040517f08c379a00000000000000000000000000000000000000000000000000000000081526004018080602001828103825260258152602001807f436f6e74726163742069732063757272656e746c79206e6f74206f706572617481526020017f696f6e616c00000000000000000000000000000000000000000000000000000081525060400191505060405180910390fd5b600a34101515156106dc576040517f08c379a00000000000000000000000000000000000000000000000000000000081526004018080602001828103825260158152602001807f46756e6420746f206c6f7720286d696e2e20313029000000000000000000000081525060200191505060405180910390fd5b60001515600160008373ffffffffffffffffffffffffffffffffffffffff1673ffffffffffffffffffffffffffffffffffffffff16815260200190815260200160002060000160019054906101000a900460ff1615151415156107a7576040517f08c379a00000000000000000000000000000000000000000000000000000000081526004018080602001828103825260198152602001807f4169726c696e6520697320616c72656164792066756e6465640000000000000081525060200191505060405180910390fd5b60018060008373ffffffffffffffffffffffffffffffffffffffff1673ffffffffffffffffffffffffffffffffffffffff16815260200190815260200160002060000160016101000a81548160ff02191690831515021790555050565b600080600080600080600060149054906101000a900460ff1615156108b7576040517f08c379a00000000000000000000000000000000000000000000000000000000081526004018080602001828103825260258152602001807f436f6e74726163742069732063757272656e746c79206e6f74206f706572617481526020017f696f6e616c00000000000000000000000000000000000000000000000000000081525060400191505060405180910390fd5b3073ffffffffffffffffffffffffffffffffffffffff1663010c5c978b6040518263ffffffff167c0100000000000000000000000000000000000000000000000000000000028152600401808273ffffffffffffffffffffffffffffffffffffffff1673ffffffffffffffffffffffffffffffffffffffff168152602001915050602060405180830381600087803b15801561095257600080fd5b505af1158015610966573d6000803e3d6000fd5b505050506040513d602081101561097c57600080fd5b81019080805190602001909291905050501515610a01576040517f08c379a00000000000000000000000000000000000000000000000000000000081526004018080602001828103825260198152602001807f4169726c696e65206973206e6f7420726567697374657265640000000000000081525060200191505060405180910390fd5b3073ffffffffffffffffffffffffffffffffffffffff1663241a53cb8b8b8b8b6040518563ffffffff167c0100000000000000000000000000000000000000000000000000000000028152600401808573ffffffffffffffffffffffffffffffffffffffff1673ffffffffffffffffffffffffffffffffffffffff168152602001806020018381526020018281038252858582818152602001925080828437820191505095505050505050602060405180830381600087803b158015610ac657600080fd5b505af1158015610ada573d6000803e3d6000fd5b505050506040513d6020811015610af057600080fd5b81019080805190602001909291905050501515610b75576040517f08c379a00000000000000000000000000000000000000000000000000000000081526004018080602001828103825260188152602001807f466c69676874206973206e6f742072656769737465726564000000000000000081525060200191505060405180910390fd5b610bb28a8a8a8080601f016020809104026020016040519081016040528093929190818152602001838380828437820191505050505050896122ff565b9550600460008760001916600019168152602001908152602001600020600301805490509450600093505b84841015610d705760046000876000191660001916815260200190815260200160002060030184815481101515610c1057fe5b9060005260206000200160009054906101000a900473ffffffffffffffffffffffffffffffffffffffff16925060046000876000191660001916815260200190815260200160002060040160008473ffffffffffffffffffffffffffffffffffffffff1673ffffffffffffffffffffffffffffffffffffffff1681526020019081526020016000205491506000821115610d6357600060046000886000191660001916815260200190815260200160002060040160008573ffffffffffffffffffffffffffffffffffffffff1673ffffffffffffffffffffffffffffffffffffffff16815260200190815260200160002081905550610d1982610d14846002612424565b61243a565b90508273ffffffffffffffffffffffffffffffffffffffff166108fc829081150290604051600060405180830381858888f19350505050158015610d61573d6000803e3d6000fd5b505b8380600101945050610bdd565b50505050505050505050565b600080610dbc8686868080601f016020809104026020016040519081016040528093929190818152602001838380828437820191505050505050856122ff565b905060046000826000191660001916815260200190815260200160002060000160009054906101000a900460ff16915050949350505050565b50565b6000600360008373ffffffffffffffffffffffffffffffffffffffff1673ffffffffffffffffffffffffffffffffffffffff168152602001908152602001600020549050919050565b610e49612456565b60008060149054906101000a900460ff161515610ef4576040517f08c379a00000000000000000000000000000000000000000000000000000000081526004018080602001828103825260258152602001807f436f6e74726163742069732063757272656e746c79206e6f74206f706572617481526020017f696f6e616c00000000000000000000000000000000000000000000000000000081525060400191505060405180910390fd5b60018260000190151590811515815250506000826020019060ff16908160ff1681525050600082604001818152505085826060019073ffffffffffffffffffffffffffffffffffffffff16908173ffffffffffffffffffffffffffffffffffffffff1681525050610f988686868080601f016020809104026020016040519081016040528093929190818152602001838380828437820191505050505050856122ff565b90508160046000836000191660001916815260200190815260200160002060008201518160000160006101000a81548160ff02191690831515021790555060208201518160000160016101000a81548160ff021916908360ff1602179055506040820151816001015560608201518160020160006101000a81548173ffffffffffffffffffffffffffffffffffffffff021916908373ffffffffffffffffffffffffffffffffffffffff16021790555060808201518160030190805190602001906110649291906124a1565b50905050505050505050565b806000809054906101000a900473ffffffffffffffffffffffffffffffffffffffff1673ffffffffffffffffffffffffffffffffffffffff168173ffffffffffffffffffffffffffffffffffffffff16141515611135576040517f08c379a000000000000000000000000000000000000000000000000000000000815260040180806020018281038252601c8152602001807f43616c6c6572206973206e6f7420636f6e7472616374206f776e65720000000081525060200191505060405180910390fd5b82600060146101000a81548160ff021916908315150217905550505050565b600060149054906101000a900460ff1615156111fe576040517f08c379a00000000000000000000000000000000000000000000000000000000081526004018080602001828103825260258152602001807f436f6e74726163742069732063757272656e746c79206e6f74206f706572617481526020017f696f6e616c00000000000000000000000000000000000000000000000000000081525060400191505060405180910390fd5b6000809054906101000a900473ffffffffffffffffffffffffffffffffffffffff1673ffffffffffffffffffffffffffffffffffffffff168173ffffffffffffffffffffffffffffffffffffffff1614806112a55750600160008273ffffffffffffffffffffffffffffffffffffffff1673ffffffffffffffffffffffffffffffffffffffff16815260200190815260200160002060000160019054906101000a900460ff165b151561133f576040517f08c379a00000000000000000000000000000000000000000000000000000000081526004018080602001828103825260258152602001807f46756e6420726571756972656420746f207265676973746572206e657720416981526020017f726c696e6500000000000000000000000000000000000000000000000000000081525060400191505060405180910390fd5b6000809054906101000a900473ffffffffffffffffffffffffffffffffffffffff1673ffffffffffffffffffffffffffffffffffffffff168173ffffffffffffffffffffffffffffffffffffffff1614151561143757600460025411151515611436576040517f08c379a00000000000000000000000000000000000000000000000000000000081526004018080602001828103825260398152602001807f6669727374206169726c696e652063616e206f6e6c792072656769737465722081526020017f34206e6577206169726c696e657320283520696e2073756d290000000000000081525060400191505060405180910390fd5b5b60018060008473ffffffffffffffffffffffffffffffffffffffff1673ffffffffffffffffffffffffffffffffffffffff16815260200190815260200160002060000160006101000a81548160ff0219169083151502179055506002600081548092919060010191905055506000809054906101000a900473ffffffffffffffffffffffffffffffffffffffff1673ffffffffffffffffffffffffffffffffffffffff168173ffffffffffffffffffffffffffffffffffffffff1614156115535760018060008473ffffffffffffffffffffffffffffffffffffffff1673ffffffffffffffffffffffffffffffffffffffff16815260200190815260200160002060000160016101000a81548160ff0219169083151502179055505b5050565b600060149054906101000a900460ff161515611601576040517f08c379a00000000000000000000000000000000000000000000000000000000081526004018080602001828103825260258152602001807f436f6e74726163742069732063757272656e746c79206e6f74206f706572617481526020017f696f6e616c00000000000000000000000000000000000000000000000000000081525060400191505060405180910390fd5b600160008273ffffffffffffffffffffffffffffffffffffffff1673ffffffffffffffffffffffffffffffffffffffff16815260200190815260200160002060000160019054906101000a900460ff1615156116c5576040517f08c379a00000000000000000000000000000000000000000000000000000000081526004018080602001828103825260178152602001807f566f746572206e6565647320746f207061792066756e6400000000000000000081525060200191505060405180910390fd5b600360008373ffffffffffffffffffffffffffffffffffffffff1673ffffffffffffffffffffffffffffffffffffffff168152602001908152602001600020600081548092919060010191905055506002805481151561172157fe5b04600360008473ffffffffffffffffffffffffffffffffffffffff1673ffffffffffffffffffffffffffffffffffffffff1681526020019081526020016000205411156117d55760018060008473ffffffffffffffffffffffffffffffffffffffff1673ffffffffffffffffffffffffffffffffffffffff16815260200190815260200160002060000160006101000a81548160ff0219169083151502179055506002600081548092919060010191905055505b5050565b60008060149054906101000a900460ff16905090565b60008060149054906101000a900460ff16151561189a576040517f08c379a00000000000000000000000000000000000000000000000000000000081526004018080602001828103825260258152602001807f436f6e74726163742069732063757272656e746c79206e6f74206f706572617481526020017f696f6e616c00000000000000000000000000000000000000000000000000000081525060400191505060405180910390fd5b600034111515611938576040517f08c379a000000000000000000000000000000000000000000000000000000000815260040180806020018281038252602b8152602001807f4e6f7420656e6f756768206d6f6e657920676976656e2c206e656564206d6f7281526020017f65207468616e207a65726f00000000000000000000000000000000000000000081525060400191505060405180910390fd5b670de0b6b3a764000034111515156119de576040517f08c379a00000000000000000000000000000000000000000000000000000000081526004018080602001828103825260248152602001807f546f6f206d756368206d6f6e657920676976656e2c206d61782e206f6e65204581526020017f746865720000000000000000000000000000000000000000000000000000000081525060400191505060405180910390fd5b3073ffffffffffffffffffffffffffffffffffffffff1663010c5c97876040518263ffffffff167c0100000000000000000000000000000000000000000000000000000000028152600401808273ffffffffffffffffffffffffffffffffffffffff1673ffffffffffffffffffffffffffffffffffffffff168152602001915050602060405180830381600087803b158015611a7957600080fd5b505af1158015611a8d573d6000803e3d6000fd5b505050506040513d6020811015611aa357600080fd5b81019080805190602001909291905050501515611b28576040517f08c379a00000000000000000000000000000000000000000000000000000000081526004018080602001828103825260198152602001807f4169726c696e65206973206e6f7420726567697374657265640000000000000081525060200191505060405180910390fd5b3073ffffffffffffffffffffffffffffffffffffffff1663241a53cb878787876040518563ffffffff167c0100000000000000000000000000000000000000000000000000000000028152600401808573ffffffffffffffffffffffffffffffffffffffff1673ffffffffffffffffffffffffffffffffffffffff168152602001806020018381526020018281038252858582818152602001925080828437820191505095505050505050602060405180830381600087803b158015611bed57600080fd5b505af1158015611c01573d6000803e3d6000fd5b505050506040513d6020811015611c1757600080fd5b81019080805190602001909291905050501515611c9c576040517f08c379a00000000000000000000000000000000000000000000000000000000081526004018080602001828103825260188152602001807f466c69676874206973206e6f742072656769737465726564000000000000000081525060200191505060405180910390fd5b611cd98686868080601f016020809104026020016040519081016040528093929190818152602001838380828437820191505050505050856122ff565b90506004600082600019166000191681526020019081526020016000206003018290806001815401808255809150509060018203906000526020600020016000909192909190916101000a81548173ffffffffffffffffffffffffffffffffffffffff021916908373ffffffffffffffffffffffffffffffffffffffff160217905550503460046000836000191660001916815260200190815260200160002060040160008473ffffffffffffffffffffffffffffffffffffffff1673ffffffffffffffffffffffffffffffffffffffff16815260200190815260200160002060008282540192505081905550505050505050565b600080600060149054906101000a900460ff161515611e7b576040517f08c379a00000000000000000000000000000000000000000000000000000000081526004018080602001828103825260258152602001807f436f6e74726163742069732063757272656e746c79206e6f74206f706572617481526020017f696f6e616c00000000000000000000000000000000000000000000000000000081525060400191505060405180910390fd5b3073ffffffffffffffffffffffffffffffffffffffff1663010c5c97886040518263ffffffff167c0100000000000000000000000000000000000000000000000000000000028152600401808273ffffffffffffffffffffffffffffffffffffffff1673ffffffffffffffffffffffffffffffffffffffff168152602001915050602060405180830381600087803b158015611f1657600080fd5b505af1158015611f2a573d6000803e3d6000fd5b505050506040513d6020811015611f4057600080fd5b81019080805190602001909291905050501515611fc5576040517f08c379a00000000000000000000000000000000000000000000000000000000081526004018080602001828103825260198152602001807f4169726c696e65206973206e6f7420726567697374657265640000000000000081525060200191505060405180910390fd5b3073ffffffffffffffffffffffffffffffffffffffff1663241a53cb888888886040518563ffffffff167c0100000000000000000000000000000000000000000000000000000000028152600401808573ffffffffffffffffffffffffffffffffffffffff1673ffffffffffffffffffffffffffffffffffffffff168152602001806020018381526020018281038252858582818152602001925080828437820191505095505050505050602060405180830381600087803b15801561208a57600080fd5b505af115801561209e573d6000803e3d6000fd5b505050506040513d60208110156120b457600080fd5b81019080805190602001909291905050501515612139576040517f08c379a00000000000000000000000000000000000000000000000000000000081526004018080602001828103825260188152602001807f466c69676874206973206e6f742072656769737465726564000000000000000081525060200191505060405180910390fd5b6121768787878080601f016020809104026020016040519081016040528093929190818152602001838380828437820191505050505050866122ff565b915060046000836000191660001916815260200190815260200160002060040160008473ffffffffffffffffffffffffffffffffffffffff1673ffffffffffffffffffffffffffffffffffffffff16815260200190815260200160002054905060008111151561224e576040517f08c379a00000000000000000000000000000000000000000000000000000000081526004018080602001828103825260168152602001807f4e6f20696e737572616e636520617661696c61626c650000000000000000000081525060200191505060405180910390fd5b600060046000846000191660001916815260200190815260200160002060040160008573ffffffffffffffffffffffffffffffffffffffff1673ffffffffffffffffffffffffffffffffffffffff168152602001908152602001600020819055508273ffffffffffffffffffffffffffffffffffffffff166108fc829081150290604051600060405180830381858888f193505050501580156122f5573d6000803e3d6000fd5b5050505050505050565b6000838383604051602001808473ffffffffffffffffffffffffffffffffffffffff1673ffffffffffffffffffffffffffffffffffffffff166c0100000000000000000000000002815260140183805190602001908083835b60208310151561237d5780518252602082019150602081019050602083039250612358565b6001836020036101000a03801982511681845116808217855250505050505090500182815260200193505050506040516020818303038152906040526040518082805190602001908083835b6020831015156123ee57805182526020820191506020810190506020830392506123c9565b6001836020036101000a038019825116818451168082178552505050505050905001915050604051809103902090509392505050565b6000818381151561243157fe5b04905092915050565b6000818301905082811015151561244d57fe5b80905092915050565b60a060405190810160405280600015158152602001600060ff16815260200160008152602001600073ffffffffffffffffffffffffffffffffffffffff168152602001606081525090565b82805482825590600052602060002090810192821561251a579160200282015b828111156125195782518260006101000a81548173ffffffffffffffffffffffffffffffffffffffff021916908373ffffffffffffffffffffffffffffffffffffffff160217905550916020019190600101906124c1565b5b509050612527919061252b565b5090565b61256b91905b8082111561256757600081816101000a81549073ffffffffffffffffffffffffffffffffffffffff021916905550600101612531565b5090565b905600a165627a7a723058204021fbdae211e9dee496c11296d7dd63622c6e85e0e9b7bbec722b1176d73cfa0029",
  "source": "pragma solidity ^0.4.25;\n\nimport \"../node_modules/openzeppelin-solidity/contracts/math/SafeMath.sol\";\n\ncontract FlightSuretyData {\n    using SafeMath for uint256;\n\n    /********************************************************************************************/\n    /*                                       DATA VARIABLES                                     */\n    /********************************************************************************************/\n\n    struct AirlineStatus {\n        bool isRegistered;\n        bool isFunded;\n    }\n\n    address private contractOwner; // Account used to deploy contract\n    bool private operational = true; // Blocks all state changes throughout the contract if false\n    mapping(address => AirlineStatus) airlineStatus;\n    uint256 registeredAirlineCount;\n    mapping(address => uint256) airlineVotes; // Number of Votes for an airline that is should be registered\n\n    struct Flight {\n        bool isRegistered;\n        uint8 statusCode;\n        uint256 updatedTimestamp;\n        address airline;\n        address[] passenger;\n        mapping(address => uint256) insuranceByPassenger;\n    }\n    mapping(bytes32 => Flight) private flights;\n\n    /********************************************************************************************/\n    /*                                       EVENT DEFINITIONS                                  */\n    /********************************************************************************************/\n\n    /**\n     * @dev Constructor\n     *      The deploying account becomes contractOwner\n     */\n    constructor() public {\n        contractOwner = msg.sender;\n    }\n\n    /********************************************************************************************/\n    /*                                       FUNCTION MODIFIERS                                 */\n    /********************************************************************************************/\n\n    // Modifiers help avoid duplication of code. They are typically used to validate something\n    // before a function is allowed to be executed.\n\n    /**\n     * @dev Modifier that requires the \"operational\" boolean variable to be \"true\"\n     *      This is used on all state changing functions to pause the contract in\n     *      the event there is an issue that needs to be fixed\n     */\n    modifier requireIsOperational() {\n        require(operational, \"Contract is currently not operational\");\n        _; // All modifiers require an \"_\" which indicates where the function body will be added\n    }\n\n    /**\n     * @dev Modifier that requires the \"ContractOwner\" account to be the function caller\n     */\n    modifier requireContractOwner(address caller) {\n        require(caller == contractOwner, \"Caller is not contract owner\");\n        _;\n    }\n\n    /********************************************************************************************/\n    /*                                       UTILITY FUNCTIONS                                  */\n    /********************************************************************************************/\n\n    /**\n     * @dev Get operating status of contract\n     *\n     * @return A bool that is the current operating status\n     */\n\n    function isOperational() public view returns (bool) {\n        return operational;\n    }\n\n    /**\n     * @dev Sets contract operations on/off\n     *\n     * When operational mode is disabled, all write transactions except for this one will fail\n     */\n\n    function setOperatingStatus(bool mode, address caller)\n        external\n        requireContractOwner(caller)\n    {\n        operational = mode;\n    }\n\n    /********************************************************************************************/\n    /*                                     SMART CONTRACT FUNCTIONS                             */\n    /********************************************************************************************/\n\n    /**\n     * @dev Add an airline to the registration queue\n     *      Can only be called from FlightSuretyApp contract\n     *\n     */\n    function registerAirline(\n        address newAirlineAddress,\n        address registererAddress\n    ) external requireIsOperational {\n        require(\n            registererAddress == contractOwner ||\n                airlineStatus[registererAddress].isFunded,\n            \"Fund required to register new Airline\"\n        );\n\n        if (registererAddress != contractOwner) {\n            require(\n                registeredAirlineCount <= 4,\n                \"first airline can only register 4 new airlines (5 in sum)\"\n            );\n        }\n\n        airlineStatus[newAirlineAddress].isRegistered = true;\n        registeredAirlineCount++;\n\n        if (registererAddress == contractOwner) {\n            airlineStatus[newAirlineAddress].isFunded = true;\n        }\n    }\n\n    /**\n     * @dev Buy insurance for a flight\n     *\n     */\n    function buyInsurance(\n        address airline,\n        string flightId,\n        uint256 timestamp,\n        address passenger\n    ) external payable requireIsOperational {\n        require(\n            msg.value > 0 ether,\n            \"Not enough money given, need more than zero\"\n        );\n        require(msg.value <= 1 ether, \"Too much money given, max. one Ether\");\n        require(this.isAirlineRegistered(airline), \"Airline is not registered\");\n        require(\n            this.isFlightRegistered(airline, flightId, timestamp),\n            \"Flight is not registered\"\n        );\n\n        bytes32 flightKey = getFlightKey(airline, flightId, timestamp);\n\n        flights[flightKey].passenger.push(passenger);\n        flights[flightKey].insuranceByPassenger[passenger] += msg.value;\n    }\n\n    /**\n     * @dev Withdraw insurance for a flight\n     *\n     */\n    function withdrawInsurance(\n        address airline,\n        string flightId,\n        uint256 timestamp,\n        address passenger\n    ) external payable requireIsOperational {\n        require(this.isAirlineRegistered(airline), \"Airline is not registered\");\n        require(\n            this.isFlightRegistered(airline, flightId, timestamp),\n            \"Flight is not registered\"\n        );\n\n        bytes32 flightKey = getFlightKey(airline, flightId, timestamp);\n\n        uint256 payout = flights[flightKey].insuranceByPassenger[passenger];\n\n        require(payout > 0, \"No insurance available\");\n\n        flights[flightKey].insuranceByPassenger[passenger] = 0;\n\n        passenger.transfer(payout);\n    }\n\n    function repayPassengerForFlight(\n        address airline,\n        string flightId,\n        uint256 timestamp\n    ) external payable requireIsOperational {\n        require(this.isAirlineRegistered(airline), \"Airline is not registered\");\n        require(\n            this.isFlightRegistered(airline, flightId, timestamp),\n            \"Flight is not registered\"\n        );\n\n        bytes32 flightKey = getFlightKey(airline, flightId, timestamp);\n\n        uint256 passengerCount = flights[flightKey].passenger.length;\n\n        for (uint256 i = 0; i < passengerCount; i++) {\n            address passenger = flights[flightKey].passenger[i];\n            uint256 insurance = flights[flightKey]\n                .insuranceByPassenger[passenger];\n\n            if (insurance > 0) {\n                flights[flightKey].insuranceByPassenger[passenger] = 0;\n\n                // passenger receives credit of 1.5X the amount they paid: multiply with decimal not possible, so add the half.\n                uint256 payout = SafeMath.add(insurance, SafeMath.div(insurance, 2));\n                passenger.transfer(payout);\n            }\n        }\n    }\n\n    /**\n     *  @dev Credits payouts to insurees\n     */\n    // not needed for project requirements, solved with other function\n    //function creditInsurees() external requireIsOperational {}\n\n    /**\n     *  @dev Transfers eligible payout funds to insuree\n     *\n     */\n     // not needed for project requirements, solved with other function\n    //function pay() external requireIsOperational {}\n\n    /**\n     * @dev Initial funding for the insurance. Unless there are too many delayed flights\n     *      resulting in insurance payouts, the contract should be self-sustaining\n     *\n     */\n     // not needed for project requirements, solved with other function\n    //function fund() public payable requireIsOperational {}\n\n    function getFlightKey(\n        address airline,\n        string flightId,\n        uint256 timestamp\n    ) internal pure returns (bytes32) {\n        return keccak256(abi.encodePacked(airline, flightId, timestamp));\n    }\n\n    function authorizeCaller(address callerAddress) {\n        // empty because implementation not required for project.\n        // Would be needed to authorize flightSuretyApp, alternative to caller parameter at setOperatingStatus.\n    }\n\n    function isAirlineRegistered(address checkAddress)\n        external\n        view\n        returns (bool)\n    {\n        return airlineStatus[checkAddress].isRegistered;\n    }\n\n    function registerFlight(\n        address airline,\n        string flightId,\n        uint256 timestamp\n    ) external requireIsOperational {\n        Flight memory flight;\n\n        flight.isRegistered = true;\n        flight.statusCode = 0; // for unknown (see app)\n        flight.updatedTimestamp = 0; // not yet updated by oracle\n        flight.airline = airline;\n\n        bytes32 flightKey = getFlightKey(airline, flightId, timestamp);\n\n        flights[flightKey] = flight;\n    }\n\n    function isFlightRegistered(\n        address airline,\n        string flightId,\n        uint256 timestamp\n    ) external view returns (bool) {\n        bytes32 flightKey = getFlightKey(airline, flightId, timestamp);\n\n        return flights[flightKey].isRegistered;\n    }\n\n    /**\n     * @dev Fallback function for funding smart contract.\n     *\n     */\n    function() external payable {\n        //fund();\n    }\n\n    function getVotesForAirline(address airline)\n        external\n        view\n        returns (uint256)\n    {\n        return airlineVotes[airline];\n    }\n\n    function voteForAirline(address airline, address airlineVoter) external requireIsOperational {\n        require(\n            airlineStatus[airlineVoter].isFunded,\n            \"Voter needs to pay fund\"\n        );\n\n        airlineVotes[airline]++;\n\n        if (airlineVotes[airline] > registeredAirlineCount / 2) {\n            // more than 50% votes, so airline can be registered\n            airlineStatus[airline].isRegistered = true;\n            registeredAirlineCount++;\n        }\n    }\n\n    function payFundForAirline(address airline) external payable requireIsOperational {\n        require(msg.value >= 10, \"Fund to low (min. 10)\");\n        require(\n            airlineStatus[airline].isFunded == false,\n            \"Airline is already funded\"\n        );\n\n        airlineStatus[airline].isFunded = true;\n    }\n}\n",
  "sourcePath": "/Users/nhutnguyen95/Blockchain Dev/nanodegree_blockchain_dev_project_4/contracts/FlightSuretyData.sol",
  "compiler": {
    "name": "solc",
    "version": "0.4.26+commit.4563c3fc.Emscripten.clang"
  },
  "schemaVersion": "3.4.8",
  "updatedAt": "2022-07-11T09:38:13.683Z",
  "networkType": "ethereum",
  "devdoc": {
    "methods": {
      "buyInsurance(address,string,uint256,address)": {
        "details": "Buy insurance for a flight     "
      },
      "isOperational()": {
        "details": "Get operating status of contract",
        "return": "A bool that is the current operating status"
      },
      "registerAirline(address,address)": {
        "details": "Add an airline to the registration queue     Can only be called from FlightSuretyApp contract     "
      },
      "setOperatingStatus(bool,address)": {
        "details": "Sets contract operations on/off     * When operational mode is disabled, all write transactions except for this one will fail"
      },
      "withdrawInsurance(address,string,uint256,address)": {
        "details": "Withdraw insurance for a flight     "
      }
    }
  },
  "userdoc": {
    "methods": {}
  }
}