{
  "contractName": "FlightSuretyApp",
  "abi": [
    {
      "inputs": [],
      "payable": false,
      "stateMutability": "nonpayable",
      "type": "constructor"
    },
    {
      "anonymous": false,
      "inputs": [
        {
          "indexed": false,
          "internalType": "address",
          "name": "airline",
          "type": "address"
        },
        {
          "indexed": false,
          "internalType": "string",
          "name": "flight",
          "type": "string"
        },
        {
          "indexed": false,
          "internalType": "uint256",
          "name": "timestamp",
          "type": "uint256"
        },
        {
          "indexed": false,
          "internalType": "uint8",
          "name": "status",
          "type": "uint8"
        }
      ],
      "name": "FlightStatusInfo",
      "type": "event"
    },
    {
      "anonymous": false,
      "inputs": [
        {
          "indexed": false,
          "internalType": "address",
          "name": "airline",
          "type": "address"
        },
        {
          "indexed": false,
          "internalType": "string",
          "name": "flight",
          "type": "string"
        },
        {
          "indexed": false,
          "internalType": "uint256",
          "name": "timestamp",
          "type": "uint256"
        },
        {
          "indexed": false,
          "internalType": "uint8",
          "name": "status",
          "type": "uint8"
        }
      ],
      "name": "OracleReport",
      "type": "event"
    },
    {
      "anonymous": false,
      "inputs": [
        {
          "indexed": false,
          "internalType": "uint8",
          "name": "index",
          "type": "uint8"
        },
        {
          "indexed": false,
          "internalType": "address",
          "name": "airline",
          "type": "address"
        },
        {
          "indexed": false,
          "internalType": "string",
          "name": "flight",
          "type": "string"
        },
        {
          "indexed": false,
          "internalType": "uint256",
          "name": "timestamp",
          "type": "uint256"
        }
      ],
      "name": "OracleRequest",
      "type": "event"
    },
    {
      "constant": true,
      "inputs": [],
      "name": "REGISTRATION_FEE",
      "outputs": [
        {
          "internalType": "uint256",
          "name": "",
          "type": "uint256"
        }
      ],
      "payable": false,
      "stateMutability": "view",
      "type": "function"
    },
    {
      "constant": true,
      "inputs": [],
      "name": "isOperational",
      "outputs": [
        {
          "internalType": "bool",
          "name": "",
          "type": "bool"
        }
      ],
      "payable": false,
      "stateMutability": "pure",
      "type": "function"
    },
    {
      "constant": true,
      "inputs": [],
      "name": "registerAirline",
      "outputs": [
        {
          "internalType": "bool",
          "name": "success",
          "type": "bool"
        },
        {
          "internalType": "uint256",
          "name": "votes",
          "type": "uint256"
        }
      ],
      "payable": false,
      "stateMutability": "pure",
      "type": "function"
    },
    {
      "constant": true,
      "inputs": [],
      "name": "registerFlight",
      "outputs": [],
      "payable": false,
      "stateMutability": "pure",
      "type": "function"
    },
    {
      "constant": false,
      "inputs": [
        {
          "internalType": "address",
          "name": "airline",
          "type": "address"
        },
        {
          "internalType": "string",
          "name": "flight",
          "type": "string"
        },
        {
          "internalType": "uint256",
          "name": "timestamp",
          "type": "uint256"
        }
      ],
      "name": "fetchFlightStatus",
      "outputs": [],
      "payable": false,
      "stateMutability": "nonpayable",
      "type": "function"
    },
    {
      "constant": false,
      "inputs": [],
      "name": "registerOracle",
      "outputs": [],
      "payable": true,
      "stateMutability": "payable",
      "type": "function"
    },
    {
      "constant": true,
      "inputs": [],
      "name": "getMyIndexes",
      "outputs": [
        {
          "internalType": "uint8[3]",
          "name": "",
          "type": "uint8[3]"
        }
      ],
      "payable": false,
      "stateMutability": "view",
      "type": "function"
    },
    {
      "constant": false,
      "inputs": [
        {
          "internalType": "uint8",
          "name": "index",
          "type": "uint8"
        },
        {
          "internalType": "address",
          "name": "airline",
          "type": "address"
        },
        {
          "internalType": "string",
          "name": "flight",
          "type": "string"
        },
        {
          "internalType": "uint256",
          "name": "timestamp",
          "type": "uint256"
        },
        {
          "internalType": "uint8",
          "name": "statusCode",
          "type": "uint8"
        }
      ],
      "name": "submitOracleResponse",
      "outputs": [],
      "payable": false,
      "stateMutability": "nonpayable",
      "type": "function"
    }
  ],
  "bytecode": "0x60806040526000600260006101000a81548160ff021916908360ff16021790555034801561002c57600080fd5b50336000806101000a81548173ffffffffffffffffffffffffffffffffffffffff021916908373ffffffffffffffffffffffffffffffffffffffff1602179055506110938061007c6000396000f3fe60806040526004361061007b5760003560e01c8063ae6f17e01161004e578063ae6f17e01461013e578063c10f270014610155578063cd905dff1461021f578063f83f11c01461024e5761007b565b8063339d2590146100805780635f1cc0e61461008a57806363e29a3f146100dd57806364b4f75114610113575b600080fd5b6100886102fe565b005b34801561009657600080fd5b5061009f610424565b6040518082600360200280838360005b838110156100ca5780820151818401526020810190506100af565b5050505090500191505060405180910390f35b3480156100e957600080fd5b506100f2610597565b60405180831515151581526020018281526020019250505060405180910390f35b34801561011f57600080fd5b506101286105a8565b6040518082815260200191505060405180910390f35b34801561014a57600080fd5b506101536105b4565b005b34801561016157600080fd5b5061021d600480360360a081101561017857600080fd5b81019080803560ff169060200190929190803573ffffffffffffffffffffffffffffffffffffffff169060200190929190803590602001906401000000008111156101c257600080fd5b8201836020820111156101d457600080fd5b803590602001918460018302840111640100000000831117156101f657600080fd5b909192939192939080359060200190929190803560ff1690602001909291905050506105b6565b005b34801561022b57600080fd5b50610234610ad7565b604051808215151515815260200191505060405180910390f35b34801561025a57600080fd5b506102fc6004803603606081101561027157600080fd5b81019080803573ffffffffffffffffffffffffffffffffffffffff169060200190929190803590602001906401000000008111156102ae57600080fd5b8201836020820111156102c057600080fd5b803590602001918460018302840111640100000000831117156102e257600080fd5b909192939192939080359060200190929190505050610ae0565b005b670de0b6b3a764000034101561037c576040517f08c379a000000000000000000000000000000000000000000000000000000000815260040180806020018281038252601c8152602001807f526567697374726174696f6e206665652069732072657175697265640000000081525060200191505060405180910390fd5b610384610f20565b61038d33610c9e565b9050604051806040016040528060011515815260200182815250600360003373ffffffffffffffffffffffffffffffffffffffff1673ffffffffffffffffffffffffffffffffffffffff16815260200190815260200160002060008201518160000160006101000a81548160ff02191690831515021790555060208201518160010190600361041d929190610f42565b5090505050565b61042c610f20565b600360003373ffffffffffffffffffffffffffffffffffffffff1673ffffffffffffffffffffffffffffffffffffffff16815260200190815260200160002060000160009054906101000a900460ff166104ee576040517f08c379a000000000000000000000000000000000000000000000000000000000815260040180806020018281038252601b8152602001807f4e6f74207265676973746572656420617320616e206f7261636c65000000000081525060200191505060405180910390fd5b600360003373ffffffffffffffffffffffffffffffffffffffff1673ffffffffffffffffffffffffffffffffffffffff16815260200190815260200160002060010160038060200260405190810160405280929190826003801561058d576020028201916000905b82829054906101000a900460ff1660ff16815260200190600101906020826000010492830192600103820291508084116105565790505b5050505050905090565b600080816000809050915091509091565b670de0b6b3a764000081565b565b8560ff16600360003373ffffffffffffffffffffffffffffffffffffffff1673ffffffffffffffffffffffffffffffffffffffff16815260200190815260200160002060010160006003811061060857fe5b602091828204019190069054906101000a900460ff1660ff16148061069557508560ff16600360003373ffffffffffffffffffffffffffffffffffffffff1673ffffffffffffffffffffffffffffffffffffffff16815260200190815260200160002060010160016003811061067a57fe5b602091828204019190069054906101000a900460ff1660ff16145b8061070857508560ff16600360003373ffffffffffffffffffffffffffffffffffffffff1673ffffffffffffffffffffffffffffffffffffffff1681526020019081526020016000206001016002600381106106ed57fe5b602091828204019190069054906101000a900460ff1660ff16145b61075d576040517f08c379a000000000000000000000000000000000000000000000000000000000815260040180806020018281038252602381526020018061103c6023913960400191505060405180910390fd5b60008686868686604051602001808660ff1660ff1660f81b81526001018573ffffffffffffffffffffffffffffffffffffffff1673ffffffffffffffffffffffffffffffffffffffff1660601b815260140184848082843780830192505050828152602001955050505050506040516020818303038152906040528051906020012090506004600082815260200190815260200160002060000160149054906101000a900460ff1661085a576040517f08c379a000000000000000000000000000000000000000000000000000000000815260040180806020018281038252602f81526020018061100d602f913960400191505060405180910390fd5b6004600082815260200190815260200160002060010160008360ff1660ff1681526020019081526020016000203390806001815401808255809150509060018203906000526020600020016000909192909190916101000a81548173ffffffffffffffffffffffffffffffffffffffff021916908373ffffffffffffffffffffffffffffffffffffffff160217905550507f43c853095c2752648493c88b4baac4d580d2594ffb00c6f1d4242d844514f7838686868686604051808673ffffffffffffffffffffffffffffffffffffffff1673ffffffffffffffffffffffffffffffffffffffff168152602001806020018481526020018360ff1660ff1681526020018281038252868682818152602001925080828437600081840152601f19601f820116905080830192505050965050505050505060405180910390a160036004600083815260200190815260200160002060010160008460ff1660ff1681526020019081526020016000208054905010610ace577fe23f5229de535c091e3b7bec2665f5d698192d3b31393066e8987b7a05076b6c8686868686604051808673ffffffffffffffffffffffffffffffffffffffff1673ffffffffffffffffffffffffffffffffffffffff168152602001806020018481526020018360ff1660ff1681526020018281038252868682818152602001925080828437600081840152601f19601f820116905080830192505050965050505050505060405180910390a1610acd8686868080601f016020809104026020016040519081016040528093929190818152602001838380828437600081840152601f19601f820116905080830192505050505050508585610e2a565b5b50505050505050565b60006001905090565b6000610aeb33610e30565b905060008186868686604051602001808660ff1660ff1660f81b81526001018573ffffffffffffffffffffffffffffffffffffffff1673ffffffffffffffffffffffffffffffffffffffff1660601b815260140184848082843780830192505050828152602001955050505050506040516020818303038152906040528051906020012090506000600460008381526020019081526020016000209050338160000160006101000a81548173ffffffffffffffffffffffffffffffffffffffff021916908373ffffffffffffffffffffffffffffffffffffffff16021790555060018160000160146101000a81548160ff0219169083151502179055507f3ed01f2c3fc24c6b329d931e35b03e390d23497d22b3f90e15b600343e93df118388888888604051808660ff1660ff1681526020018573ffffffffffffffffffffffffffffffffffffffff1673ffffffffffffffffffffffffffffffffffffffff168152602001806020018381526020018281038252858582818152602001925080828437600081840152601f19601f820116905080830192505050965050505050505060405180910390a150505050505050565b610ca6610f20565b610cae610f20565b610cb783610e30565b81600060038110610cc457fe5b602002019060ff16908160ff168152505080600060038110610ce257fe5b602002015181600160038110610cf457fe5b602002019060ff16908160ff16815250505b80600060038110610d1357fe5b602002015160ff1681600160038110610d2857fe5b602002015160ff161415610d6257610d3f83610e30565b81600160038110610d4c57fe5b602002019060ff16908160ff1681525050610d06565b80600160038110610d6f57fe5b602002015181600260038110610d8157fe5b602002019060ff16908160ff16815250505b80600060038110610da057fe5b602002015160ff1681600260038110610db557fe5b602002015160ff161480610df0575080600160038110610dd157fe5b602002015160ff1681600260038110610de657fe5b602002015160ff16145b15610e2157610dfe83610e30565b81600260038110610e0b57fe5b602002019060ff16908160ff1681525050610d93565b80915050919050565b50505050565b600080600a905060008160ff166002600081819054906101000a900460ff168092919060010191906101000a81548160ff021916908360ff16021790555060ff1643034085604051602001808381526020018273ffffffffffffffffffffffffffffffffffffffff1673ffffffffffffffffffffffffffffffffffffffff1660601b8152601401925050506040516020818303038152906040528051906020012060001c81610edb57fe5b06905060fa600260009054906101000a900460ff1660ff161115610f16576000600260006101000a81548160ff021916908360ff1602179055505b8092505050919050565b6040518060600160405280600390602082028038833980820191505090505090565b826003601f01602090048101928215610fcb5791602002820160005b83821115610f9c57835183826101000a81548160ff021916908360ff1602179055509260200192600101602081600001049283019260010302610f5e565b8015610fc95782816101000a81549060ff0219169055600101602081600001049283019260010302610f9c565b505b509050610fd89190610fdc565b5090565b61100991905b8082111561100557600081816101000a81549060ff021916905550600101610fe2565b5090565b9056fe466c69676874206f722074696d657374616d7020646f206e6f74206d61746368206f7261636c652072657175657374496e64657820646f6573206e6f74206d61746368206f7261636c652072657175657374a265627a7a723158202b45bab51914f1f73e0d5686c26717512753e54f378ff8255815d767f090a91664736f6c63430005100032",
  "source": "// SPDX-License-Identifier: MIT\npragma solidity >=0.4.22 <0.9.0;\n\n// It's important to avoid vulnerabilities due to numeric overflow bugs\n// OpenZeppelin's SafeMath library, when used correctly, protects agains such bugs\n// More info: https://www.nccgroup.trust/us/about-us/newsroom-and-events/blog/2018/november/smart-contract-insecurity-bad-arithmetic/\n\nimport \"../node_modules/openzeppelin-solidity/contracts/math/SafeMath.sol\";\n\n/************************************************** */\n/* FlightSurety Smart Contract                      */\n/************************************************** */\ncontract FlightSuretyApp {\n\n    // Allow SafeMath functions to be called for all uint256 types (similar to \"prototype\" in Javascript)\n    using SafeMath for uint256;\n    \n    /********************************************************************************************/\n    /*                                       DATA VARIABLES                                     */\n    /********************************************************************************************/\n\n    // Flight status codees\n    uint8 private constant STATUS_CODE_UNKNOWN = 0;\n    uint8 private constant STATUS_CODE_ON_TIME = 10;\n    uint8 private constant STATUS_CODE_LATE_AIRLINE = 20;\n    uint8 private constant STATUS_CODE_LATE_WEATHER = 30;\n    uint8 private constant STATUS_CODE_LATE_TECHNICAL = 40;\n    uint8 private constant STATUS_CODE_LATE_OTHER = 50;\n\n    // Account used to deploy contract\n    address private contractOwner;\n\n    struct Flight {\n        bool isRegistered;\n        uint8 statusCode;\n        uint256 updatedTimestamp;        \n        address airline;\n    }\n\n    mapping(bytes32 => Flight) private flights;\n\n \n    /********************************************************************************************/\n    /*                                       FUNCTION MODIFIERS                                 */\n    /********************************************************************************************/\n\n    // Modifiers help avoid duplication of code. They are typically used to validate something\n    // before a function is allowed to be executed.\n\n    /**\n    * @dev Modifier that requires the \"operational\" boolean variable to be \"true\"\n    *      This is used on all state changing functions to pause the contract in \n    *      the event there is an issue that needs to be fixed\n    */\n    modifier requireIsOperational() \n    {\n         // Modify to call data contract's status\n        require(true, \"Contract is currently not operational\");  \n        _;  // All modifiers require an \"_\" which indicates where the function body will be added\n    }\n\n    /**\n    * @dev Modifier that requires the \"ContractOwner\" account to be the function caller\n    */\n    modifier requireContractOwner()\n    {\n        require(msg.sender == contractOwner, \"Caller is not contract owner\");\n        _;\n    }\n\n    /********************************************************************************************/\n    /*                                       CONSTRUCTOR                                        */\n    /********************************************************************************************/\n\n    /**\n    * @dev Contract constructor\n    *\n    */\n    constructor()\n    public\n    {\n        contractOwner = msg.sender;\n    }\n\n    /********************************************************************************************/\n    /*                                       UTILITY FUNCTIONS                                  */\n    /********************************************************************************************/\n\n    function isOperational() public \n    pure \n    returns(bool) \n    {\n        // Modify to call data contract's status\n        return true;\n    }\n\n    /********************************************************************************************/\n    /*                                     SMART CONTRACT FUNCTIONS                             */\n    /********************************************************************************************/\n\n  \n   /**\n    * @dev Add an airline to the registration queue\n    *\n    */   \n    function registerAirline()\n    external\n    pure\n    returns(bool success, uint256 votes)\n    {\n        return (success, 0);\n    }\n\n\n   /**\n    * @dev Register a future flight for insuring.\n    *\n    */  \n    function registerFlight()\n    external\n    pure\n    {}\n    \n   /**\n    * @dev Called after oracle has updated flight status\n    *\n    */  \n    function processFlightStatus(\n        address airline,\n        string memory flight,\n        uint256 timestamp,\n        uint8 statusCode\n    )\n    internal\n    pure\n    {}\n\n\n    // Generate a request for oracles to fetch flight information\n    function fetchFlightStatus(\n        address airline,\n        string calldata flight,\n        uint256 timestamp                            \n    )\n    external\n    {\n        uint8 index = getRandomIndex(msg.sender);\n\n        // Generate a unique key for storing the request\n        bytes32 key = keccak256(abi.encodePacked(index, airline, flight, timestamp));\n        ResponseInfo storage newResponseInfo = oracleResponses[key];\n        newResponseInfo.requester = msg.sender;\n        newResponseInfo.isOpen = true;\n\n        // oracleResponses[key] = ResponseInfo({\n        //     requester: msg.sender,\n        //     isOpen: true\n        // });\n\n        emit OracleRequest(index, airline, flight, timestamp);\n    } \n\n\n// region ORACLE MANAGEMENT\n\n    // Incremented to add pseudo-randomness at various points\n    uint8 private nonce = 0;    \n\n    // Fee to be paid when registering oracle\n    uint256 public constant REGISTRATION_FEE = 1 ether;\n\n    // Number of oracles that must respond for valid status\n    uint256 private constant MIN_RESPONSES = 3;\n\n\n    struct Oracle {\n        bool isRegistered;\n        uint8[3] indexes;        \n    }\n\n    // Track all registered oracles\n    mapping(address => Oracle) private oracles;\n\n    // Model for responses from oracles\n    // Account that requested status\n    // If open, oracle responses are accepted\n    // Mapping key is the status code reported\n    // This lets us group responses and identify\n    // the response that majority of the oracles\n    struct ResponseInfo {\n        address requester;                              \n        bool isOpen;                                    \n        mapping(uint8 => address[]) responses;          \n    }\n\n    // Track all oracle responses\n    // Key = hash(index, flight, timestamp)\n    mapping(bytes32 => ResponseInfo) private oracleResponses;\n\n    // Event fired each time an oracle submits a response\n    event FlightStatusInfo(address airline, string flight, uint256 timestamp, uint8 status);\n\n    event OracleReport(address airline, string flight, uint256 timestamp, uint8 status);\n\n    // Event fired when flight status request is submitted\n    // Oracles track this and if they have a matching index\n    // they fetch data and submit a response\n    event OracleRequest(uint8 index, address airline, string flight, uint256 timestamp);\n\n\n    // Register an oracle with the contract\n    function registerOracle()\n    external\n    payable\n    {\n        // Require registration fee\n        require(msg.value >= REGISTRATION_FEE, \"Registration fee is required\");\n\n        uint8[3] memory indexes = generateIndexes(msg.sender);\n\n        oracles[msg.sender] = Oracle({\n            isRegistered: true,\n            indexes: indexes\n        });\n    }\n\n    function getMyIndexes()\n    view\n    external\n    returns(uint8[3] memory)\n    {\n        require(oracles[msg.sender].isRegistered, \"Not registered as an oracle\");\n        return oracles[msg.sender].indexes;\n    }\n\n\n\n\n    // Called by oracle when a response is available to an outstanding request\n    // For the response to be accepted, there must be a pending request that is open\n    // and matches one of the three Indexes randomly assigned to the oracle at the\n    // time of registration (i.e. uninvited oracles are not welcome)\n    function submitOracleResponse(\n        uint8 index,\n        address airline,\n        string calldata flight,\n        uint256 timestamp,\n        uint8 statusCode\n    )\n    external\n    {\n        require(\n            (oracles[msg.sender].indexes[0] == index) ||\n            (oracles[msg.sender].indexes[1] == index) ||\n            (oracles[msg.sender].indexes[2] == index),\n            \"Index does not match oracle request\"\n        );\n\n        bytes32 key = keccak256(abi.encodePacked(index, airline, flight, timestamp)); \n        require(oracleResponses[key].isOpen, \"Flight or timestamp do not match oracle request\");\n\n        oracleResponses[key].responses[statusCode].push(msg.sender);\n\n        // Information isn't considered verified until at least MIN_RESPONSES\n        // oracles respond with the *** same *** information\n        emit OracleReport(airline, flight, timestamp, statusCode);\n        if (oracleResponses[key].responses[statusCode].length >= MIN_RESPONSES) {\n\n            emit FlightStatusInfo(airline, flight, timestamp, statusCode);\n\n            // Handle flight status as appropriate\n            processFlightStatus(airline, flight, timestamp, statusCode);\n        }\n    }\n\n\n    function getFlightKey(address airline, string memory flight, uint256 timestamp)\n    pure\n    internal\n    returns(bytes32) \n    {\n        return keccak256(abi.encodePacked(airline, flight, timestamp));\n    }\n\n    // Returns array of three non-duplicating integers from 0-9\n    function generateIndexes(                       \n        address account         \n    )\n    internal\n    returns(uint8[3] memory)\n    {\n        uint8[3] memory indexes;\n        indexes[0] = getRandomIndex(account);\n        \n        indexes[1] = indexes[0];\n        while(indexes[1] == indexes[0]) {\n            indexes[1] = getRandomIndex(account);\n        }\n\n        indexes[2] = indexes[1];\n        while((indexes[2] == indexes[0]) || (indexes[2] == indexes[1])) {\n            indexes[2] = getRandomIndex(account);\n        }\n\n        return indexes;\n    }\n\n    // Returns array of three non-duplicating integers from 0-9\n    function getRandomIndex(\n        address account\n    )\n    internal\n    returns (uint8)\n    {\n        uint8 maxValue = 10;\n\n        // Pseudo random number...the incrementing nonce adds variation\n        uint8 random = uint8(\n            uint256(keccak256(abi.encodePacked(blockhash(block.number - nonce++), account))) % maxValue\n        );\n\n        if (nonce > 250) {\n            nonce = 0;  // Can only fetch blockhashes for last 256 blocks so we adapt\n        }\n\n        return random;\n    }\n\n// endregion\n\n}   \n",
  "sourcePath": "/Users/nhutnguyen95/Desktop/project_4/contracts/FlightSuretyApp.sol",
  "compiler": {
    "name": "solc",
    "version": "0.5.16+commit.9c3226ce.Emscripten.clang"
  },
  "schemaVersion": "3.4.7",
  "updatedAt": "2022-06-28T16:58:39.956Z",
  "networkType": "ethereum",
  "devdoc": {
    "methods": {
      "constructor": {
        "details": "Contract constructor    "
      },
      "registerAirline()": {
        "details": "Add an airline to the registration queue    "
      },
      "registerFlight()": {
        "details": "Register a future flight for insuring.    "
      }
    }
  },
  "userdoc": {
    "methods": {
      "isOperational()": {
        "notice": "*****************************************************************************************"
      }
    },
    "notice": "************************************************ "
  }
}